:02000002D0002C
:1040000000400D0038570D00000006000D000501AE
:084010000401E80500000000B6
:044018006C530D00D8
:10401C0009480A49884208B505D0094A824202D0AB
:10402C00121A01F059F90748074A0021121A01F037
:10403C005EF9014808BD00BF34E40320A4560D000E
:10404C00A0E40320A0E40320F0E7032070B500F007
:10405C007DFB074C074BE41AA40800251E46A5421D
:10406C0004D056F8253098470135F8E770BD00BFED
:10407C0098560D0060560D0000F016B808B500F00B
:10408C0025F8BDE8084000F023BB00F0E7B900F0CC
:10409C00EDB900F0EBB90078B0FA80F04009704748
:1040AC00012303707047000008B5064B01211888E6
:1040BC0000F030FF044B01211888BDE8084000F0E7
:1040CC0029BF00BFA4E4032034E4032038B50E4D0F
:1040DC000E4C2888012100F02EFF0121208800F0D1
:1040EC002AFF4FF47A7000F0B5FA2888002100F00E
:1040FC0022FF2088002100F01EFF4FF47A70BDE8EB
:10410C00384000F0A7BA00BFA4E4032034E4032035
:10411C0000F010B808B5024B1B689B68019308BDF2
:10412C006802030008B5024B1B68DB68019308BDED
:10413C006802030008B5024B1B681B68019308BD9D
:10414C002C02030008B5024B1B689B68019308BD49
:10415C002C02030008B5024B1B68DB68019308BDF9
:10416C002C02030008B5024B1B681B69019308BDA8
:10417C002C02030008B5024B1B68DB69019308BDD8
:10418C003002030008B5024B1B681B6A019308BD83
:10419C003002030008B5024B1B685B68019308BD35
:1041AC001802030008B5024B1B685B69019308BD3C
:1041BC001802030008B5024B1B689B68019308BDED
:1041CC004802030008B5024B1B681B69019308BD2C
:1041DC004802030008B5024B1B685B69019308BDDC
:1041EC004802030008B5024B1B685B6C019308BDC9
:1041FC004802030008B5024B1B689B6C019308BD79
:10420C004802030008B5024B1B685B69019308BDAB
:10421C006402030008B5024B1B681B68019308BDC0
:10422C003C02030008B5024B1B68DB68019308BD18
:10423C003C02030008B5024B1B681B69019308BDC7
:10424C003C02030008B5024B1B685B69019308BD77
:10425C003C02030008B5024B1B689B69019308BD27
:10426C003C02030008B5024B1B68DB69019308BDD7
:10427C003C02030008B5024B1B681B6A019308BD86
:10428C003C02030008B5024B1B689B6A019308BDF6
:10429C003C02030008B5024B1B681B6A019308BD66
:1042AC002802030008B5024B1B685B6A019308BD2A
:1042BC002802030008B5024B1B689B6A019308BDDA
:1042CC002802030008B5024B1B68DB6A019308BD8A
:1042DC002802030008B5024B1B681B6B019308BD39
:1042EC002802030008B5024B1B685B6B019308BDE9
:1042FC002802030008B5024B1B681B6C019308BD18
:10430C002802030008B5024B1B681B68019308BD0B
:10431C004C02030008B5024B1B681B69019308BDD6
:10432C004C02030008B5024B1B685B69019308BD86
:10433C004C02030008B5024B1B689B69019308BD36
:10434C004C02030008B5024B1B68DB69019308BDE6
:10435C004C02030008B5024B1B681B6A019308BD95
:10436C004C02030008B5024B1B685B68019308BD47
:10437C002002030008B5024B1B685B69019308BD62
:10438C002002030008B5034B1B68D3F88830019357
:10439C0008BD00002002030008B5034B1B68D3F8CE
:1043AC009430019308BD00002002030008B5024BB5
:1043BC001B685B68019308BD4002030008B5024B03
:1043CC001B689B68019308BD4002030008B5024BB3
:1043DC001B68DB68019308BD4002030008B5024B63
:1043EC001B681B69019308BD4002030008B5024B12
:1043FC001B685B69019308BD4002030008B5024BC2
:10440C001B689B69019308BD4002030008B5024B71
:10441C001B68DB69019308BD4002030008B5024B21
:10442C001B681B6A019308BD4002030008B5024BD0
:10443C001B681B6B019308BD4002030008B5024BBF
:10444C001B685B6B019308BD4002030008B5024B6F
:10445C001B68DB6B019308BD4402030008B5024BDB
:10446C001B681B68019308BD1C02030008B5024BB6
:10447C001B685B68019308BD1C02030000221146F7
:10448C004068FFF7CBBF002211464068FFF7D6BF4C
:10449C0000224068FFF7CABF002281F0010140688A
:1044AC00FFF7B4BF00231A4619464068FFF7A6BFB2
:1044BC0000231A4619464068FFF798BF00221146A0
:1044CC004068FFF78BBF002211464068FFF776BFAC
:1044DC00002202214068FFF779BF00231A4640688A
:1044EC00FFF764BF024B03225A60024A1A607047FE
:1044FC00A8E4032088530D0010B50446017008464B
:10450C00FFF738FE00236360204610BD0078FFF7EC
:10451C0039BE10B50446006818B1FFF7A7FF002399
:10452C00236010BD10B50446FFF7F3FF204610BD05
:10453C0010B5094C00204FF6FF732060A080A071CD
:10454C0020816381FFF70EFF2046044A0449BDE831
:10455C00104000F049BD00BFB0E40320A0E40320EC
:10456C0031450D0010B50446006808B1FFF742FE56
:10457C00204610BD10B5064C002320462360FFF7E3
:10458C0031FE2046034A0449BDE8104000F02CBD22
:10459C00BCE40320A0E4032071450D00F8B50646E9
:1045AC000D468F180024BD420CD0336815F8011B42
:1045BC009B6830469847002801DB0444F3E7002C45
:1045CC0008BF04462046F8BD70B505460C460846A3
:1045DC0049B100F0BDFE2B68024621462846DB6837
:1045EC00BDE87040184770BD03689B68184730B52C
:1045FC008BB00B4600218DF82410012A98BF0A229B
:10460C000DF12304B3FBF2F505FB123303F0FF03AA
:10461C00092B94BF30333733DBB2214604F8013910
:10462C002B46002DEED1FFF7CFFF0BB030BD0000B5
:10463C00014B024A1A607047C0E4032027540D0056
:10464C00024B1A68024B1A60704700BF38E4032013
:10465C00C4E403200021FFF78DBE10B58368044627
:10466C0013B1032201469847204610BD10B50446ED
:10467C00FFF7F3FF204610BD0348044A044900230A
:10468C00836000F0B1BC00BFC8E40320A0E40320A9
:10469C0079460D0008B50C4B33B100F053F90368A3
:1046AC001B699847002809DC084B63B100F018FA25
:1046BC0003681B699847002803DC08BDAFF3008032
:1046CC00F2E7AFF3008008BD00000000000000001E
:1046DC0008B5FFF7DFFFFFF765FD014B186008BD5C
:1046EC0030E703200248034A0349121A00F0F4BDD4
:1046FC0000F4032004F40320A0560D0007B500239A
:10470C0000931A466FF07701FFF746FE03B05DF891
:10471C0004FB000007B543880A2B08D0502B09D1A5
:10472C00094B1B683BB103B05DF804EB1847FFF76E
:10473C00E5FF06E0002300931A466FF07701FFF7C0
:10474C002BFE03B05DF804FBD8E4032038B5104C05
:10475C00104D2368AB42104B0CBF012200221A7083
:10476C0002D0FFF7BFFF2560FFF714FD044600F0F1
:10477C00C7FD0A4B13B12046AFF300800021074858
:10478C00FFF764FE00210648BDE83840FFF7FABD8C
:10479C0000F403201E1C279ADCE403200000000018
:1047AC0021470D00704710B51821044600F02AFC73
:1047BC00204610BDF0B5037D062B8DB00E4600F1E2
:1047CC0004074FF0000402D000F1080518E00CAD0E
:1047DC00394605F8304D2F232A460A20FFF712FDE3
:1047EC00284600F0B5FD33680246DB6829463046A2
:1047FC0098470FE024B12E213046FFF7F5FE044414
:10480C0015F8011D0A223046FFF7F1FEBD420444A3
:10481C00F0D120460DB0F0BD10B5054B0446112269
:10482C0040F8043B002100F062FD204610BD00BFA3
:10483C00C8540D000346074A10B543F8042B01F188
:10484C00100251F8044B43F8044B9142F9D10A7809
:10485C001A7010BDC8540D0010B59DF8084044EAFC
:10486C00032343EA024242EA0161042341600375D7
:10487C0010BD37B50D788B784A78C97800912946E8
:10488C00FFF7EAFF03B030BD41747047704708B5BD
:10489C000021007CFFF74EFD30EA200028BF4FF0CE
:1048AC00FF3008BD08B50121007CFFF743FD30EA5D
:1048BC00200028BF4FF0FF3008BD08B5007CFFF783
:1048CC0031FD20EAE07008BD08B5007CFFF722FD41
:1048DC0020EAE07008BD007CFFF73CBD10B5142148
:1048EC00044600F08FFB204610BD38B50446007C12
:1048FC000D46FFF717FD002801DC607C28B1294626
:10490C00207CFFF71FFD20EAE07038BD10B504468F
:10491C00002363604FF47A73A360054B236001237B
:10492C000846217463741146FFF7ECFC204610BD59
:10493C00DC540D0010B514220446002100F0D7FC05
:10494C00204610BD30B50E4D87B001A8FFF7F2FF21
:10495C00296811F0010410D12846FFF79CFB60B1C7
:10496C0001AA21460748FFF7D1FF2846FFF798FB1D
:10497C00054A0649034800F037FB024807B030BD32
:10498C00E0E40320E4E40320A0E4032099480D00B4
:10499C00002211464068FFF721BD002211464068F5
:1049AC00FFF73CBD002211464068FFF747BD0022CF
:1049BC004068FFF73BBD002281F001014068FFF722
:1049CC0025BD00231A4619464068FFF717BD002382
:1049DC001A4619464068FFF709BD00221146406887
:1049EC00FFF7ECBC002202214068FFF7EFBC00236C
:1049FC001A464068FFF7DABC38B5084C28252A4619
:104A0C000021204600F073FC4FF0FF336360044B31
:104A1C00258004225A60034A1A6038BD00E5032041
:104A2C00F8E403200C550D0070474174704708B52D
:104A3C00007CFFF727FC20EAE07008BD08B5007C7D
:104A4C00FFF7F8FB20EAE07008BD08B5007CFFF723
:104A5C0001FC30EA200028BF4FF0FF3008BD08B53C
:104A6C00007CFFF7EFFB30EA200028BF4FF0FF304F
:104A7C0008BD007CFFF7F6BB10B51421044600F00E
:104A8C00C1FA204610BD70B5457C04460E4625B9CA
:104A9C00007CFFF7F7FB002805DD3146207CBDE8E4
:104AAC007040FFF7BFBB284670BD000010B5044630
:104ABC0008461146002262604FF47A72A260054AE1
:104ACC0022600122207462741A46FFF7A3FB204671
:104ADC0010BD00BF40550D00007CFFF7CBBB0000A4
:104AEC00F8B5194C25684DB98420FFF7CEFA064667
:104AFC0018B18422294600F0FAFB2660134D2E686B
:104B0C004EB98420FFF7C1FA074618B1842231460A
:104B1C0000F0EDFB2F600E4F396811F0010611D13A
:104B2C003846FFF7B8FA68B122682B680948314655
:104B3C00FFF7BCFF3846FFF7B3FA074A07490548A9
:104B4C0000F052FA0348F8BD44E503203CE503208D
:104B5C0040E5032028E50320A0E40320354A0D009E
:104B6C007047F8B5064615460C468F18BC4206D061
:104B7C00336814F8011B9B6830469847F6E72846C3
:104B8C00F8BD0022007CFFF785BB0021007CFFF7FD
:104B9C0089BB0021007CFFF78DBB0021007CFFF757
:104BAC0091BB0021007CFFF795BB10B51421044686
:104BBC0000F028FA204610BD10B5044600236360AF
:104BCC004FF47A73A360044B21740846236011469A
:104BDC00FFF790FB204610BD70550D000021007CA6
:104BEC00FFF780BB002211464068FFF717BC00227C
:104BFC0011464068FFF722BC00224068FFF716BC44
:104C0C00002281F001014068FFF700BC00231A4626
:104C1C0001214068FFF7F2BB00231A461946406891
:104C2C00FFF7E4BB002211464068FFF7D7BB002218
:104C3C0011464068FFF7C2BB002202214068FFF713
:104C4C00C5BB00231A464068FFF7B0BB38B5054614
:104C5C0088B104684CB1A3681BB1032221462046DD
:104C6C0098471021204600F0CDF928461421BDE8C4
:104C7C00384000F0C7B938BD10B103685B681847FD
:104C8C00704710B503680446BBB15868FFF792FA39
:104C9C0078B923685A7C12B95868FFF793FA2368DD
:104CAC005868FFF797FA20680023236028B1FFF7B4
:104CBC00CDFF206808B1FFF7C9FF204610BD38B5FD
:104CCC000446D0F8C40108B1FFF7E3F9D4F8C001E9
:104CDC0008B1FFF78FFAD4F8BC5135B12846FFF76D
:104CEC00D0FF0421284600F08DF9206808B1FFF7A9
:104CFC00C3FF204638BD000010B5044B044640F8F5
:104D0C00083BFFF7DCFF204610BD00BF98550D0097
:104D1C0038B50E4C0E4B23600025022304F5E470CD
:104D2C006360A560C4F8C451C4F8C851FFF75AFABF
:104D3C00084BC4F8CC5184F8D05123602046064A65
:104D4C000649BDE8384000F04FB900BF48E50320E4
:104D5C00CC550D0098550D00A0E40320054D0D0019
:104D6C0000231A464068FFF721BB0022022140684D
:104D7C00FFF72CBB002211464068FFF71FBB002237
:104D8C0011464068FFF72ABB00231A4619464068B3
:104D9C00FFF72CBB00231A4619464068FFF72EBBC1
:104DAC00002281F001014068FFF730BB002240680F
:104DBC00FFF73CBB002211464068FFF73FBB0022C7
:104DCC0011464068FFF72ABB2DE9F043002495B04B
:104DDC0016460D460746FFF71FFD214620220CA85C
:104DEC00009400F084FA40230C9321466B460CAAE5
:104DFC003046FFF797F90446002844D102460121BA
:104E0C006868FFF7EBFA0221804622466868FFF7D4
:104E1C00E5FA009E81462146002E34D0002932D17D
:104E2C007368022B02D00A2B09D02AE0B8F1000FCC
:104E3C0027D0716938460431FFF71BFD20E0B9F12A
:104E4C00000F1ED07469112201A800F050FA06233D
:104E5C008DF8143001AD04F1080318341868596842
:104E6C002A4603C20833A3421546F7D101A906A866
:104E7C0007ADFFF7DFFC0FCD3C1D0FC42B68237073
:104E8C000121F669C8E70098FFF744F9384615B0D8
:104E9C00BDE8F083024B034A1A6000225A60704747
:104EAC001CE70320CC550D0070B5184E316811F07D
:104EBC00010504460AD13046FFF7EDF830B129461A
:104ECC001348FFF719FB3046FFF7EAF81048FFF7D5
:104EDC001DFB28B1A4F10B03022B01D8002070BDDF
:104EEC0000F05CF8FFF77AFE08B1012CF6D9FFF759
:104EFC00F7FDFFF7F1FD18B1A4F10903012BEDD972
:104F0C00232C8CBF0020012070BD00BF24E70320A0
:104F1C0028E70320232838B504460D460AD8FF2974
:104F2C0008D0FFF7C1FF28B129462046BDE838401C
:104F3C00FFF708B938BD38B504460D46FFF70AF936
:104F4C00FF2810D0062804D84D2323FA00F0C307FD
:104F5C0009D42046FFF7A8FF28B129462046BDE812
:104F6C003840FFF7FFB838BD70B5044614252A4603
:104F7C00094E002100F0BBF9258020253146A560A3
:104F8C002561284600F040F831466060284600F064
:104F9C003BF8E060204670BDF8550D0030B50E4D65
:104FAC00296811F0010487B013D12846FFF773F874
:104FBC0078B101A8FFF7D8FF01AA21460748FFF7EF
:104FCC00FBFD2846FFF76CF8054A0649034800F03C
:104FDC000BF8024807B030BD34E7032038E7032054
:104FEC00A0E403206D4B0D000B460146184600F063
:104FFC0065B90000024B1868BFF35F8F704700BFA4
:10500C004CE70320FFF743B800F000B810B50028B8
:10501C0014BF044601242046FFF720FA20B9FFF7FD
:10502C00E9FF08B18047F6E710BD0000184B1A687D
:10503C00D1075CBF01221A60164B1A68D2075CBFFD
:10504C0001221A60144B1A68D0075CBF01221A6047
:10505C00124B1A68D1075CBF01221A60104B1A68F8
:10506C00D2075CBF01221A600E4B1A68D0075CBFD6
:10507C0001221A600C4B1A68D1075CBF01221A601E
:10508C000A4B1A68D2075CBF01221A60704700BF36
:10509C006CE7032068E7032064E7032060E7032044
:1050AC005CE7032058E7032054E7032050E7032074
:1050BC00244B1A68D0075CBF01221A60224B1A6875
:1050CC00D1075CBF01221A60204B1A68D2075CBF63
:1050DC0001221A601E4B1A68D0075CBF01221A60AD
:1050EC001C4B1A68D1075CBF01221A601A4B1A6854
:1050FC00D2075CBF01221A60184B1A68D0075CBF3C
:10510C0001221A60164B1A68D1075CBF01221A6083
:10511C00144B1A68D2075CBF01221A60124B1A6832
:10512C00D0075CBF01221A60104B1A68D1075CBF14
:10513C0001221A600E4B1A68D2075CBF01221A605A
:10514C00704700BF9CE7032098E7032094E70320F7
:10515C0090E703208CE7032088E7032084E70320F3
:10516C0080E703207CE7032078E7032074E7032023
:10517C0070E70320244B1A68D0075CBF01221A6029
:10518C00224B1A68D1075CBF01221A60204B1A68A7
:10519C00D2075CBF01221A601E4B1A68D0075CBF95
:1051AC0001221A601C4B1A68D1075CBF01221A60DD
:1051BC001A4B1A68D2075CBF01221A60184B1A6886
:1051CC00D0075CBF01221A60164B1A68D1075CBF6E
:1051DC0001221A60144B1A68D2075CBF01221A60B4
:1051EC00124B1A68D0075CBF01221A60104B1A6868
:1051FC00D1075CBF01221A600E4B1A68D2075CBF44
:10520C0001221A60704700BFCCE70320C8E70320D7
:10521C00C4E70320C0E70320BCE70320B8E7032062
:10522C00B4E70320B0E70320ACE70320A8E7032092
:10523C00A4E70320A0E70320184B1A68D1075CBF32
:10524C0001221A60164B1A68D2075CBF01221A6041
:10525C00144B1A68D0075CBF01221A60124B1A68F3
:10526C00D1075CBF01221A60104B1A68D2075CBFD1
:10527C0001221A600E4B1A68D0075CBF01221A601B
:10528C000C4B1A68D1075CBF01221A600A4B1A68D2
:10529C00D2075CBF01221A60704700BFECE7032005
:1052AC00E8E70320E4E70320E0E70320DCE7032042
:1052BC00D8E70320D4E70320D0E7032010B5054C32
:1052CC0013462CB10A4601460220AFF3008010BDF4
:1052DC00204610BD0000000010B5431E0A44914248
:1052EC0004D011F8014B03F8014FF8E710BD02444C
:1052FC000346934202D003F8011BFAE77047000003
:10530C0038B5124B1C68A36B0546D3B91820FFF7B0
:10531C00A5F843F20E33A06303804AF6CD334380E5
:10532C0041F2342383804EF26D63C3804DF6EC63FF
:10533C000381052343810B23838101220023C0E9D0
:10534C000423A36B00221D615A6138BD9CE4032029
:10535C00034613F8012B002AFBD1181A01387047A9
:10536C001D400D0059400D0085400D0089400D0079
:10537C00000000000000000000000000E7440D00E9
:10538C00DD440D00D3440D00C9440D00BD440D0097
:10539C00B1440D00A5440D009D440D0093440D0037
:1053AC0089440D00D54D0D00626175640053657222
:1053BC0069616C0053657269616C31007479706558
:1053CC0000706172616D00636D6400696400686EE9
:1053DC0064007374726D0066696C74006C766C009A
:1053EC0061646448616E646C65720072656D6F76A1
:1053FC006548616E646C657200656E756D48616EB2
:10540C00646C657273004A534F4E53747265616DD0
:10541C004C6F6748616E646C65720061707000253A
:10542C003031307520005D20002564002C200028D0
:10543C00293A2000205B00636F6465203D20002525
:10544C00690064657461696C73203D20000D0A006D
:10545C0066006C6E00666E00636F64650064657454
:10546C0061696C006E6F6E650074726163650069D2
:10547C006E666F007761726E006572726F7200708B
:10548C00616E696300616C6C005A00252B303364CB
:10549C003A253032750025592D256D2D256454255E
:1054AC00483A254D3A2553257A0061736374696D2A
:1054BC00650000000000000000000000C1470D0066
:1054CC00B1470D00B3470D000000000000000000C4
:1054DC0099480D00E9480D00F7480D00A9450D004D
:1054EC00D5480D009B480D00B1480D00E3480D0058
:1054FC00C7480D0095480D0000000000000000009A
:10550C00FB490D00F1490D00E7490D009D490D00C7
:10551C00DB490D00CF490D00C3490D00BB490D00FF
:10552C00B1490D00A7490D00D54D0D00000000003C
:10553C0000000000354A0D00854A0D00934A0D000D
:10554C00A9450D00494A0D006B4A0D00574A0D0044
:10555C007F4A0D00374A0D003B4A0D000000000049
:10556C00000000006D4B0D00B74B0D008F4B0D0074
:10557C006F4B0D00974B0D009F4B0D00A74B0D0073
:10558C00AF4B0D0000000000000000004F4C0D0060
:10559C00454C0D003B4C0D00314C0D00254C0D00C5
:1055AC00194C0D000D4C0D00054C0D00FB4B0D0066
:1055BC00F14B0D00D54D0D00000000000000000067
:1055CC006D4D0D00774D0D00814D0D008B4D0D0077
:1055DC00954D0D00A14D0D00AD4D0D00B94D0D00BB
:1055EC00C14D0D00CB4D0D00D54D0D000000000040
:1055FC00000000000000000000000000000000009F
:10560C00000000000000000000000000000000008E
:10561C00000000000000000000000000000000007E
:10562C00000000000000000000000000000000006E
:10563C00000000000000000000000000000000005E
:10564C00000000000000000000000000000000004E
:10565C00430000001D410D00F1440D003D450D00BF
:10566C0081450D003D460D004D460D0085460D0053
:10567C00054A0D001D4D0D00A14E0D0039500D00B9
:10568C00BD500D0081510D0045520D000000000071
:04569C00000000000A
:0456A0000000000006
:1056A40007000000B6540D0000000000FC550D007A
:1056B4001C560D003C560D000000000000000000C8
:1056C40000000000000000005C560D000000000017
:1056D40000000000000000000000000000000000C6
:1056E40000000000000000000000000000000000B6
:1056F40000000000000000000000000000000000A6
:0C57040000000000000000003CE4032056
:10571000FFFFFFFF00000102030405060708090A56
:105720000B0C0D0E0F101112131415161718191A51
:085730001B1C1D1E1F20280098
:045738007856341259
:04000003D000401CCD
:00000001FF
